:060000000A128A110E280D
:10000800FE00030EF0000A08F1007F08F2000A1251
:100018008A1140280A128A111128F30183010A1251
:100028008A1116288B170B178B16073083160313A4
:1000380081003B30831203138100831603130610DB
:100048007308031D282829282C2883120313061453
:1000580064307306031D31283228352883120313B0
:100068000610C8307306031D3A283B282428F301DC
:1000780024280A128A110E280B1D432844284928CF
:100088000130FF007F08F3070B117208FF007108A9
:0C0098008A00700E8300FE0E7E0E090030
:02400E00BA3FB7
:00000001FF
