:060000000A128A11FA2F1A
:100F06007108F3007008F200730DF30CF20C730D08
:100F1600F30CF20C72088312031395001708CF39ED
:100F260097007008F20003300310F20DFF3E031D18
:100F3600972F0310720D3039170497000800831697
:100F4600031387010C30831203139700FF308316B7
:100F5600031392000430831203139200F601F70183
:100F66007708F1007608F0000A128A1183270A1220
:100F76008A110330F5009730F400F40BC02FF50BFF
:100F8600C02FC52F0130F6070318F70A0030F70700
:100F960003307702FF3003197602031CD32FD42FB8
:100FA600B32FFF30F6000330F7007708F10076081C
:100FB600F0000A128A1183270A128A110330F500FB
:100FC6009730F400F40BE52FF50BE52FEA2F0130EF
:100FD600F6070318F70A0030F70776087704031DAB
:100FE600F52FF62FD82FB12F0A128A110028F801F3
:0A0FF600F90183010A128A11A22FEB
:02400E00BA3FB7
:00000001FF
