:060000000A128A1110280B
:10000800FE00030EF0000408F1000A08F2007F0861
:10001800F3000A128A1143290A128A11132883133A
:100028003530FD000130FE008F30FF002B3084009A
:100038000A128A1180210A128A11F801F901830132
:100048000A128A11EB2883120313A501A11F2D2878
:100058002E283528A009A109A00A0319A10AA5017B
:10006800A50AA31F382839284228A209A309A20AE9
:100078000319A30A0130FF007F08A506A601A701FE
:1000880020082104031949284A288128A401A40A20
:10009800582801300310A00DA10DFF3E031D4E2866
:1000A8000130FF007F08A407A11F5B285C284D28AA
:1000B80001300310A60DA70DFF3E031D5D28210882
:1000C8002302031D692820082202031C6C286D28BE
:1000D80074282008A2022108031CA303A3022614E3
:1000E80001300310A10CA00CFF3E031D7528013040
:1000F800A402031D802881285C2825080319852867
:1001080086288B28A609A709A60A0319A70A27087B
:10011800A1002608A0000800F50183120313A31FFD
:10012800962897289E28A209A309A20A0319A30AB8
:10013800F501F50AA11FA128A228A728A009A1094D
:10014800A00A0319A10A200821040319AC28AD2824
:10015800DC28F401F40ABB2801300310A00DA10D1E
:10016800FF3E031DB1280130FF007F08F407A11FDF
:10017800BE28BF28B02821082302031DC52820084F
:100188002202031CC828C928CF282008A202210857
:10019800031CA303A30201300310A10CA00CFF3E13
:1001A800031DD0280130F402031DDB28DC28BF28FA
:1001B80075080319E028E128E628A209A309A20A7C
:1001C8000319A30A2308A1002208A00008008B171E
:1001D8000B178B1607308316031381003B308312ED
:1001E80003138100831603138601071087100A3052
:1001F80083120313A0000030A1007808A800A90109
:100208002808A2002908A3000A128A1127200A1226
:100218008A11831203132008F7000A30A000003067
:10022800A1007808A800A9012808A2002908A300AD
:100238000A128A1190200A128A11831203132008C5
:10024800F6000130FF007F08F80764307806031DC8
:100258002E292F293029F8011A3083120313AA00F6
:100268005E30A9006D30A800A80B3829A90B3829E1
:10027800AA0B38293F29FB280A128A1110280B1DBE
:1002880046294729712902307906031D4C294D2931
:100298004E29F9017903031D522953295D29831237
:1002A80003130714871077082B3E84008313000874
:1002B80086007908031D612962296C2983120313BA
:1002C8008714071076082B3E8400831300088600E5
:1002D8000130FF007F08F9070B117308FF0072084F
:1002E8008A0071088400700E8300FE0E7E0E0900DD
:1002F8007E088A007F0882000A128A117C210A126D
:100308008A118000840A04087D0603190034FF0A54
:100318000319FE0A80293F3406345B344F346634AF
:0A0328006D347D3407347F346F34E8
:02400E00BA3FB7
:00000001FF
