:100000000A128A11FC2F00308A000408840A820731
:10001000003443346F346E34743472346F346C345F
:100020006C346534723400344D3469346334723462
:040030006F340034F5
:100EEE00F200720883120313870008108810081589
:100EFE000730F1007D30F000F00B832FF10B832FC4
:100F0E008312031308110800F200720883120313F0
:100F1E0087000814881008150730F1007D30F000A6
:100F2E00F00B972FF10B972F831203130811080064
:100F3E0038300A128A1177270A128A1106300A12DD
:100F4E008A1177270A128A110C300A128A11772712
:100F5E000A128A1101300A128A1177270A128A118F
:100F6E000800F400F501CC2F7508740784000A12EE
:100F7E008A1103200A128A110A128A118B270A1269
:100F8E008A110130FF007F08F50773087502031CF4
:100F9E00D12FD22FBB2F0800831603138701880190
:100FAE000A128A119F270A128A1181300A128A1197
:100FBE0077270A128A110630F3000C300A128A11B2
:100FCE00B8270A128A11C1300A128A1177270A121B
:100FDE008A110B30F30001300A128A11B8270A1257
:100FEE008A11DC2F0A128A11002883010A128A1133
:020FFE00D32FEF
:02400E00BA3FB7
:00000001FF
