:060000000A128A11E82F2C
:100F3E004E343F3406345B344F3466346D347C3477
:100F4E0007347F346F347E088A007F0882000A12CD
:100F5E008A11AA270A128A118000840A04087D06C3
:100F6E0003190034FF0A0319FE0AAE2F831603136A
:100F7E008601071087100730F1000830F000831249
:100F8E00031307148710270886004130F300EE3054
:100F9E00F200F20BD02FF30BD02F000083120313AD
:100FAE0087140710280886004130F300EE30F20057
:100FBE00F20BDF2FF30BDF2F0000C22F0A128A1164
:100FCE00002883132A30FD000730FE00A030FF00FA
:100FDE00203084000A128A11AE270A128A110A12D0
:100FEE008A119F270A128A11F40083010A128A11AC
:020FFE00BD2F05
:02400E00BA3FB7
:00000001FF
