:100000000A128A11FC2F00308A000408840A820731
:1000100000344B34653479347034613464343A34A8
:020020000034AA
:100D5800F20072088312031387000814881008151C
:100D68000730F1007D30F000F00BB82EF10BB82EF3
:100D78008312031308110800F20072088312031388
:100D880087000810881008150730F1007D30F00042
:100D9800F00BCC2EF10BCC2E831203130811080094
:100DA80038300A128A11C0260A128A1106300A122D
:100DB8008A11C0260A128A110C300A128A11C0261A
:100DC8000A128A1101300A128A11C0260A128A11DF
:100DD8000800F400F501012F7508740784000A1251
:100DE8008A1103200A128A110A128A11AC260A12E1
:100DF8008A110130FF007F08F50773087502031C8C
:100E0800062F072FF02E0800831603138701880189
:100E1800F03086000A128A11D4260A128A1180300C
:100E28000A128A11C0260A128A110730F30001300B
:100E38000A128A11ED260A128A11C1300A128A1181
:100E4800C0260A128A110A128A1130270A128A1138
:100E5800272F0A128A1100288312031386140611F9
:100E68008611061E382F392F452F31300A128A1164
:100E7800AC260A128A1183120313061A442F452F2F
:100E88003F2F861E482F492F552F34300A128A11BA
:100E9800AC260A128A1183120313861A542F552F6F
:100EA8004F2F061F582F592F652F37300A128A11D6
:100EB800AC260A128A1183120313061B642F652FAE
:100EC8005F2F861F682F692F752F2A300A128A1103
:100ED800AC260A128A1183120313861B742F752FEE
:100EE8006F2F861006158611061E7B2F7C2F882FE4
:100EF80032300A128A11AC260A128A11831203139D
:100F0800061A872F882F822F861E8B2F8C2F982FBB
:100F180035300A128A11AC260A128A118312031379
:100F2800861A972F982F922F061F9B2F9C2FA82F3A
:100F380038300A128A11AC260A128A118312031356
:100F4800061BA72FA82FA22F861FAB2FAC2FB82FB9
:100F580030300A128A11AC260A128A11831203133E
:100F6800861BB72FB82FB22F861006118615061EBE
:100F7800BE2FBF2FCB2F33300A128A11AC260A128C
:100F88008A1183120313061ACA2FCB2FC52F861E68
:100F9800CE2FCF2FDB2F36300A128A11AC260A1239
:100FA8008A1183120313861ADA2FDB2FD52F061F17
:100FB800DE2FDF2FEB2F39300A128A11AC260A12E6
:100FC8008A1183120313061BEA2FEB2FE52F861FC6
:100FD800EE2FEF2FFB2F23300A128A11AC260A12AC
:100FE8008A1183120313861BFA2FFB2FF52F080093
:080FF80083010A128A11082F7F
:02400E00BA3FB7
:00000001FF
